:100000000C945D000C9485000C9485000C94850084
:100010000C9485000C9485000C9485000C9485004C
:100020000C9485000C9485000C9485000C9485003C
:100030000C9485000C9485000C9485000C9485002C
:100040000C94DD020C9485000C9485000C948500C2
:100050000C9485000C9485000C9485000C9485000C
:100060000C9485000C94850000000008000201003B
:100070000003040700000000000000000000000072
:10008000250028002B0000000000240027002A0083
:10009000040404040404040402020202020203032E
:1000A0000303030301020408102040800102040836
:1000B0001020010204081020900311241FBECFEF6E
:1000C000D8E0DEBFCDBF11E0A0E0B1E0ECE6F7E0A4
:1000D00002C005900D92A035B107D9F721E0A0E547
:1000E000B1E001C01D92A137B207E1F710E0CDE504
:1000F000D0E004C02197FE010E94AE03CC35D107A9
:10010000C9F70E9427030C94B4030C94000090E0FC
:10011000FC01EC55FF4F249180579F4FFC018491C7
:10012000882399F090E0880F991FFC01EA57FF4F50
:10013000A591B491FC01E458FF4F859194918FB73C
:10014000F894EC91E22BEC938FBF089590E0FC01C2
:10015000E859FF4F2491FC01EC55FF4F3491FC010D
:10016000E057FF4FE491EE23C9F0222339F023300A
:1001700001F1A8F4213019F1223029F1F0E0EE0F5D
:10018000FF1FE458FF4FA591B4918FB7F894EC91FD
:10019000611126C030953E233C938FBF08952730D0
:1001A000A9F02830C9F0243049F7809180008F7D74
:1001B00003C0809180008F7780938000DFCF84B56B
:1001C0008F7784BDDBCF84B58F7DFBCF8091B0006E
:1001D0008F778093B000D2CF8091B0008F7DF9CF20
:1001E0003E2BDACF3FB7F89480915501909156019C
:1001F000A0915701B091580126B5A89B05C02F3F8B
:1002000019F00196A11DB11D3FBFBA2FA92F982F3C
:100210008827BC01CD01620F711D811D911D42E037
:10022000660F771F881F991F4A95D1F708958F92FF
:100230009F92AF92BF92CF92DF92EF92FF920E9475
:10024000F2004B015C0184EFC82EDD24D394E12C35
:10025000F12C0E94F200681979098A099B09683E0D
:10026000734081059105A8F321E0C21AD108E10885
:10027000F10888EE880E83E0981EA11CB11CC11401
:10028000D104E104F10429F7FF90EF90DF90CF90C3
:10029000BF90AF909F908F900895AF92BF92CF92F2
:1002A000DF92EF92FF920F931F93CF93DF936C0136
:1002B0007B018B01040F151FEB015E01AE18BF0817
:1002C000C017D10759F06991D601ED91FC910190C9
:1002D000F081E02DC6010995892B79F7C501DF91E1
:1002E000CF911F910F91FF90EF90DF90CF90BF9033
:1002F000AF900895089590E080E00895FC0101908A
:100300000020E9F73197AF01481B590BBC0189E583
:1003100091E00C944D01CF93DF93EC0160E08E816E
:100320000E94A60061E08E810E94A60060E08E819E
:100330000E94A6008BE891E00197F1F7DF91CF9141
:100340000895CF92DF92EF92FF920F931F93CF9376
:10035000DF936C017C0187E0E80EF11CD0E0C0E087
:10036000062F10E0B8010C2E02C0759567950A940F
:10037000E2F76170F70181917F010E94A60021964A
:10038000C430D10579F7C601DF91CF911F910F914C
:10039000FF90EF90DF90CF900C948B01CF92DF9283
:1003A000EF92FF920F931F93CF93DF93EC01F62E02
:1003B000642F8C810E94A6008D818F3F19F060E030
:1003C0000E94A6000F2D10E08F8584FF25C06E01CE
:1003D00087E0C80ED11CF12CE12CB8010E2C02C014
:1003E000759567950A94E2F76170F60181916F0146
:1003F0000E94A600FFEFEF1AFF0A88E0E816F1045A
:1004000061F7CE01DF91CF911F910F91FF90EF9097
:10041000DF90CF900C948B01B80184E075956795BF
:100420008A95E1F7CE010E94A1016F2DCE01DF91E7
:10043000CF911F910F91FF90EF90DF90CF900C9490
:10044000A10140E0682F89E591E00C94CE01CF93A3
:10045000DF93823029F4909168019860909368014D
:1004600080936C0110926D0180E480936E0180E1B5
:1004700080936F0180E58093700180915D010E94FF
:10048000870080915E018F3F11F00E94870080916C
:100490005F010E948700C9E5D1E09E0129553140E6
:1004A0008091680184FD0AC084E090E021962817BD
:1004B00039073CF48E810E948700EFCF88E090E0FE
:1004C000F5CF8BE39DE00197F1F760E080915D014E
:1004D0000E94A60060E080915F010E94A6008091CA
:1004E0005E018F3F19F060E00E94A60080916801D4
:1004F00084FD39C063E089E591E00E94A101CBE46D
:10050000D6E4CE010197F1F763E089E591E00E941E
:10051000A1012197F1F763E089E591E00E94A10133
:1005200083E592E00197F1F762E089E591E00E94AE
:10053000A1018091680180620E94210284E0809381
:1005400069018CE00E94210281E00E9421028BE37C
:100550009FE10197F1F782E080936A0186E0DF91E5
:10056000CF910C94210280620E9421028BE496E4D8
:100570000197F1F78091680180620E94210283E572
:1005800092E00197F1F78091680180620E94210258
:10059000D0CFE0916C01E23040F4E150F0E0E75A56
:1005A000FE4F848980680C942102E1E0F7CF41E09E
:1005B0000E94CE0181E090E008951F920F920FB645
:1005C0000F9211242F933F938F939F93AF93BF93D9
:1005D0008091510190915201A0915301B091540129
:1005E0003091500123E0230F2D3758F50196A11DBE
:1005F000B11D209350018093510190935201A0931B
:100600005301B09354018091550190915601A091EE
:100610005701B09158010196A11DB11D809355015C
:1006200090935601A0935701B0935801BF91AF9199
:100630009F918F913F912F910F900FBE0F901F9020
:10064000189526E8230F0296A11DB11DD2CF7894EC
:1006500084B5826084BD84B5816084BD85B58260C7
:1006600085BD85B5816085BD80916E008160809378
:100670006E001092810080918100826080938100E1
:1006800080918100816080938100809180008160F1
:10069000809380008091B10084608093B10080914C
:1006A000B00081608093B00080917A008460809374
:1006B0007A0080917A00826080937A0080917A003B
:1006C000816080937A0080917A00806880937A00BC
:1006D0001092C10082E00E9427028CE091E00E940B
:1006E0007E01C0E0D0E00E94C9028DE191E00E944D
:1006F0007E010E9417010E94C9028EE291E00E94D1
:100700007E010E9417010E94C9028FE391E00E94BE
:100710007E010E941701209731F30E940000E3CF71
:10072000E9E5F1E01382128284E091E09183808315
:100730008CE084838FEF85838BE0868385E08783DD
:1007400084E0808783E0818782E082871386148635
:1007500015861686178681E00C942702EE0FFF1F80
:0C0760000590F491E02D0994F894FFCF6F
:10076C0000000000D7024D017B017A0148656C6CDA
:10077C006F2C206176722D70692120200072756EAD
:10078C0020617672206F6E20706921202000656DCB
:10079C00756C61746F727320726F636B2120006DC6
:1007AC006164652077697468203C33202020200028
:00000001FF
