:100000000C9435000C945D000C945D000C945D0024
:100010000C945D000C945D000C945D000C945D00EC
:100020000C945D000C945D000C945D000C945D00DC
:100030000C945D000C945D000C945D000C945D00CC
:100040000C9491010C945D000C9401020C94DB0162
:100050000C945D000C945D000C945D000C945D00AC
:100060000C945D000C945D00020311241FBECFEFC1
:10007000D8E0DEBFCDBF21E0AAE2B1E001C01D9211
:10008000A43DB207E1F711E0A0E0B1E0E0ECFAE056
:1000900002C005900D92AA32B107D9F710E0C5E36E
:1000A000D0E004C02197FE010E946603C433D1074B
:1000B000C9F70E9433020C945E050C9400003FB710
:1000C000F8948091CC019091CD01A091CE01B09196
:1000D000CF0126B5A89B05C02F3F19F00196A11DA1
:1000E000B11D3FBFBA2FA92F982F8827BC01CD0182
:1000F000620F711D811D911D42E0660F771F881FE1
:10010000991F4A95D1F70895AF92BF92CF92DF928F
:10011000EF92FF920F931F93CF93DF936C017B01BC
:100120008B01040F151FEB015E01AE18BF08C0174D
:10013000D10759F06991D601ED91FC910190F081C0
:10014000E02DC6010995892B79F7C501DF91CF9183
:100150001F910F91FF90EF90DF90CF90BF90AF90E5
:100160000895FC01538D448D252F30E0842F90E0BD
:10017000821B930B541710F0CF96089501970895A2
:10018000FC01918D828D981761F0A28DAE0FBF2F6B
:10019000B11D5D968C91928D9F5F9F73928F90E0C1
:1001A00008958FEF9FEF0895FC01918D828D981730
:1001B00031F0828DE80FF11D858D90E008958FEF6D
:1001C0009FEF0895FC01918D228D892F90E0805C36
:1001D0009F4F821B91098F73992708958AE291E0BE
:1001E0000E94E20021E0892B09F420E0822F08958B
:1001F00080E090E0892B29F00E94EE0081110C94A0
:1002000000000895FC01A48DA80FB92FB11DA35AB9
:10021000BF4F2C91848D90E001968F739927848F26
:10022000A689B7892C93A089B1898C918370806449
:100230008C93938D848D981306C00288F389E02DEA
:1002400080818F7D80830895EF92FF920F931F939B
:10025000CF93DF93EC0181E0888F9B8D8C8D981379
:100260001AC0E889F989808185FF15C09FB7F89485
:10027000EE89FF896083E889F989808183708064D1
:1002800080839FBF81E090E0DF91CF911F910F911C
:10029000FF90EF900895F62E0B8D10E00F5F1F4F2B
:1002A0000F731127E02E8C8D8E110CC00FB607FC3A
:1002B000FACFE889F989808185FFF5CFCE010E94C8
:1002C0000201F1CFEB8DEC0FFD2FF11DE35AFF4F33
:1002D000F0829FB7F8940B8FEA89FB898081806256
:1002E000CFCFCF93DF93EC01888D8823B9F0AA8913
:1002F000BB89E889F9898C9185FD03C0808186FDE1
:100300000DC00FB607FCF7CF8C9185FFF2CF80812F
:1003100085FFEDCFCE010E940201E9CFDF91CF91A1
:1003200008951F920F920FB60F9211242F933F93AF
:100330008F939F93AF93BF938091C8019091C90110
:10034000A091CA01B091CB013091C70123E0230FE6
:100350002D3758F50196A11DB11D2093C70180933B
:10036000C8019093C901A093CA01B093CB018091B9
:10037000CC019091CD01A091CE01B091CF01019619
:10038000A11DB11D8093CC019093CD01A093CE010E
:10039000B093CF01BF91AF919F918F913F912F91DA
:1003A0000F900FBE0F901F90189526E8230F02960E
:1003B000A11DB11DD2CF1F920F920FB60F92112423
:1003C0002F933F934F935F936F937F938F939F935D
:1003D000AF93BF93EF93FF938AE291E00E940201F3
:1003E000FF91EF91BF91AF919F918F917F916F910D
:1003F0005F914F913F912F910F900FBE0F901F90E3
:1004000018951F920F920FB60F9211242F938F936E
:100410009F93EF93FF93E0913A01F0913B0180812C
:10042000E0914001F091410182FD1BC090818091DB
:1004300043018F5F8F7320914401821741F0E09157
:100440004301F0E0E65DFE4F958F80934301FF91FD
:10045000EF919F918F912F910F900FBE0F901F9052
:1004600018958081F4CF789484B5826084BD84B57A
:10047000816084BD85B5826085BD85B5816085BD9F
:1004800080916E00816080936E0010928100809157
:1004900081008260809381008091810081608093DF
:1004A0008100809180008160809380008091B10004
:1004B00084608093B1008091B00081608093B0002F
:1004C00080917A00846080937A0080917A008260C3
:1004D00080937A0080917A00816080937A00809185
:1004E0007A00806880937A001092C100E0913A010E
:1004F000F0913B0182E08083E0913601F091370179
:100500001082E0913801F09139018FEC80831092D4
:100510004201E0913E01F0913F0186E08083E0914D
:100520003C01F0913D01808180618083E0913C013C
:10053000F0913D01808188608083E0913C01F091E1
:100540003D01808180688083E0913C01F0913D0114
:1005500080818F7D808300E010E06EE070E090E0AD
:1005600080E00E949104EC0150E040E0009739F0F7
:10057000188268E171E00E9457054DE050E0BE012D
:100580008AE291E00E94840042E050E066E271E07D
:100590008AE291E00E9484000E945F004B015C01AE
:1005A00088EEC82E83E0D82EE12CF12C0E945F004B
:1005B000681979098A099B09683E7340810591058C
:1005C000A8F321E0C21AD108E108F10888EE880EEC
:1005D00083E0981EA11CB11CC114D104E104F104F4
:1005E00029F7209719F0CE010E9408040115110582
:1005F00009F4B3CF0E94EE00882309F4AECF0E9425
:100600000000ABCFEAE2F1E01382128288EE93E0C1
:10061000A0E0B0E084839583A683B7838AE091E06D
:100620009183808385EC90E09587848784EC90E0CB
:100630009787868780EC90E0918B808B81EC90E0AF
:10064000938B828B82EC90E0958B848B86EC90E090
:10065000978B868B118E128E138E148E08952F9287
:100660003F924F925F926F927F928F929F92AF9242
:10067000BF92CF92DF92EF92FF920F931F93CF938F
:10068000DF93CDB7DEB7CA1BDB0B0FB6F894DEBF26
:100690000FBECDBF09942A88398848885F846E844C
:1006A0007D848C849B84AA84B984C884DF80EE8096
:1006B000FD800C811B81AA81B981CE0FD11D0FB69F
:1006C000F894DEBF0FBECDBFED010895EE0FFF1F02
:1006D0000590F491E02D09940F931F93CF93DF932E
:1006E0008230910510F482E090E0E091D201F09127
:1006F000D30130E020E0B0E0A0E0309799F421157C
:10070000310509F44AC0281B390B24303105D8F5CE
:100710008A819B816115710589F1FB019383828335
:10072000FE0111C040815181028113814817590790
:10073000E0F04817590799F4109761F012960C935E
:10074000129713961C933296CF01DF91CF911F9190
:100750000F9108950093D2011093D301F4CF211586
:10076000310551F04217530738F0A901DB019A0116
:10077000BD01DF01F801C1CFEF01F9CF9093D301A3
:100780008093D201CDCFFE01E20FF31F81939193AD
:100790002250310939832883D7CF2091D00130915D
:1007A000D101232B41F420910201309103013093B8
:1007B000D1012093D0012091000130910101211538
:1007C000310541F42DB73EB7409104015091050128
:1007D000241B350BE091D001F091D101E217F30712
:1007E000A0F42E1B3F0B2817390778F0AC014E5FA1
:1007F0005F4F2417350748F04E0F5F1F5093D1010C
:100800004093D001819391939FCFF0E0E0E09CCFA3
:10081000CF93DF930097E9F0FC01329713821282A5
:10082000A091D201B091D301ED0130E020E010970A
:10083000A1F420813181820F931F2091D00130914A
:10084000D1012817390709F061C0F093D101E09375
:10085000D001DF91CF910895EA01CE17DF07E8F5C7
:100860004A815B819E0141155105B1F7E901FB8386
:10087000EA8349915991C40FD51FEC17FD0761F424
:10088000808191810296840F951FE9019983888365
:10089000828193819B838A83F0E0E0E012968D91C0
:1008A0009C9113970097B9F52D913C911197CD012B
:1008B0000296820F931F2091D0013091D101281709
:1008C000390739F6309751F51092D3011092D201C1
:1008D000B093D101A093D001BCCFD383C283408118
:1008E0005181840F951FC817D90761F44E5F5F4F80
:1008F00088819981480F591F518340838A819B8148
:10090000938382832115310509F0B0CFF093D30191
:10091000E093D2019ECFFD01DC01C0CF1382128291
:10092000D7CFB0E0A0E0E7E9F4E00C9431038C010C
:10093000009751F4CB010E946C038C01C801CDB724
:10094000DEB7E0E10C944D03FC01E60FF71F9C01BC
:1009500022503109E217F30708F49DC0D901CD9167
:10096000DC911197C617D70798F0C530D10530F341
:10097000CE0104978617970708F3C61BD70B22975B
:10098000C193D1936D937C93CF010E940804D6CF7D
:100990005B01AC1ABD0A4C018C0E9D1EA091D201C8
:1009A000B091D301512C412CF12CE12C109731F551
:1009B0008091D0019091D1018815990509F05CC012
:1009C0004616570608F058C0809100019091010129
:1009D000009741F48DB79EB74091040150910501F5
:1009E000841B950BE817F90708F055C0F093D10167
:1009F000E093D001F90171836083A0CF8D919C9128
:100A0000119712966C90129713967C901397A815D5
:100A1000B90559F56C0142E0C40ED11CCA14DB04BF
:100A200020F1AC014A195B09DA011296159780F0A2
:100A30006282738251834083D9016D937C93E11468
:100A4000F10471F0D7011396FC93EE93129776CFD1
:100A500022968C0F9D1FF90191838083F301EFCFC4
:100A6000F093D301E093D20169CF4816590608F4F8
:100A70002C017D01D3019ACFCB010E946C037C0134
:100A8000009749F0AE01B8010E944E05C8010E94CE
:100A90000804870153CF10E000E050CFFB01DC01D8
:100AA00002C001900D9241505040D8F70895FB01CB
:100AB000DC0101900D920020E1F70895F894FFCF3A
:100AC0000000D40180000000000024018400B10077
:100AD0007101E200C000D40048656C6C6F2C207777
:0A0AE0006F726C6421000D0A000023
:00000001FF
