:100000000C945C000C946E000C946E000C946E00CA
:100010000C946E000C946E000C946E000C946E00A8
:100020000C946E000C946E000C946E000C946E0098
:100030000C946E000C946E000C946E000C946E0088
:100040000C9470000C946E000C946E000C946E0076
:100050000C946E000C946E000C946E000C946E0068
:100060000C946E000C946E00000000002400270029
:100070002A0000000000250028002B0004040404CE
:100080000404040402020202020203030303030342
:10009000010204081020408001020408102001021F
:1000A00004081020000000080002010000030407FB
:1000B000000000000000000011241FBECFEFD8E0B8
:1000C000DEBFCDBF21E0A0E0B1E001C01D92A930AC
:1000D000B207E1F70E94BA000C94AB010C94000047
:1000E0001F920F920FB60F9211242F933F938F936D
:1000F0009F93AF93BF938091050190910601A091CA
:100100000701B09108013091040123E0230F2D373E
:1001100058F50196A11DB11D20930401809305019E
:1001200090930601A0930701B0930801809100010C
:1001300090910101A0910201B09103010196A11DCE
:10014000B11D8093000190930101A0930201B0932F
:100150000301BF91AF919F918F913F912F910F908C
:100160000FBE0F901F90189526E8230F0296A11D31
:10017000B11DD2CF789484B5826084BD84B581608E
:1001800084BD85B5826085BD85B5816085BD809162
:100190006E00816080936E001092810080918100DA
:1001A00082608093810080918100816080938100D2
:1001B000809180008160809380008091B100846094
:1001C0008093B1008091B00081608093B0008091F5
:1001D0007A00846080937A0080917A0082608093B4
:1001E0007A0080917A00816080937A0080917A0011
:1001F000806880937A001092C100CCE9D0E0FE01C3
:10020000249108E810E0F8018491882399F090E0A7
:10021000880F991FFC01E859FF4FA591B491FC018B
:10022000EE58FF4F859194918FB7F8949C91292BAC
:100230002C938FBF30EBC32E30E0D32E48EE442EEC
:1002400043E0542E612C712C50E0A52E50E0B52EC9
:100250002FB7F89460910501709106018091070114
:10026000909108012FBFF6012491FE019490F801AE
:100270003491332311F1222339F0233079F120F521
:10028000213091F12230A1F1E32FF0E0EE0FFF1FBA
:10029000EE58FF4FE590F4908FB6F894A3019201C9
:1002A0000E948901653F71408105910570F5F70154
:1002B00080819094982290828FBEA114B10409F499
:1002C000C7CF0E940000C4CF2730A9F02830C9F062
:1002D0002430D1F6209180002F7D03C02091800032
:1002E0002F7720938000D0CF24B52F7724BDCCCF9B
:1002F00024B52F7DFBCF2091B0002F772093B00045
:10030000C3CF2091B0002F7DF9CFF7018081982ACB
:10031000D2CFA1E21A2EAA1BBB1BFD010DC0AA1F42
:10032000BB1FEE1FFF1FA217B307E407F50720F05E
:10033000A21BB30BE40BF50B661F771F881F991FD9
:100340001A9469F760957095809590959B01AC0122
:0A035000BD01CF010895F894FFCF1E
:00000001FF
